{
  "abi": [
    {
      "anonymous": false,
      "inputs": [
        {
          "indexed": true,
          "internalType": "address",
          "name": "delegator",
          "type": "address"
        },
        {
          "indexed": true,
          "internalType": "bytes32",
          "name": "id",
          "type": "bytes32"
        },
        {
          "indexed": true,
          "internalType": "address",
          "name": "delegate",
          "type": "address"
        }
      ],
      "name": "ClearDelegate",
      "type": "event"
    },
    {
      "anonymous": false,
      "inputs": [
        {
          "indexed": true,
          "internalType": "address",
          "name": "delegator",
          "type": "address"
        },
        {
          "indexed": true,
          "internalType": "bytes32",
          "name": "id",
          "type": "bytes32"
        },
        {
          "indexed": true,
          "internalType": "address",
          "name": "delegate",
          "type": "address"
        }
      ],
      "name": "SetDelegate",
      "type": "event"
    },
    {
      "inputs": [
        {
          "internalType": "bytes32",
          "name": "id",
          "type": "bytes32"
        }
      ],
      "name": "clearDelegate",
      "outputs": [],
      "stateMutability": "nonpayable",
      "type": "function"
    },
    {
      "inputs": [
        {
          "internalType": "address",
          "name": "",
          "type": "address"
        },
        {
          "internalType": "bytes32",
          "name": "",
          "type": "bytes32"
        }
      ],
      "name": "delegation",
      "outputs": [
        {
          "internalType": "address",
          "name": "",
          "type": "address"
        }
      ],
      "stateMutability": "view",
      "type": "function"
    },
    {
      "inputs": [
        {
          "internalType": "bytes32",
          "name": "id",
          "type": "bytes32"
        },
        {
          "internalType": "address",
          "name": "delegate",
          "type": "address"
        }
      ],
      "name": "setDelegate",
      "outputs": [],
      "stateMutability": "nonpayable",
      "type": "function"
    }
  ],
  "bytecode": {
    "object": "0x608060405234801561001057600080fd5b50610413806100206000396000f3fe608060405234801561001057600080fd5b50600436106100415760003560e01c806374c6c45414610046578063bd86e50814610093578063f0bedbe2146100a8575b600080fd5b61007761005436600461036e565b60006020818152928152604080822090935290815220546001600160a01b031681565b6040516001600160a01b03909116815260200160405180910390f35b6100a66100a1366004610398565b6100bb565b005b6100a66100b63660046103c4565b610292565b336001600160a01b038216036101115760405162461bcd60e51b815260206004820152601660248201527521b0b713ba103232b632b3b0ba32903a379039b2b63360511b60448201526064015b60405180910390fd5b6001600160a01b03811661015f5760405162461bcd60e51b8152602060048201526015602482015274043616e27742064656c656761746520746f2030783605c1b6044820152606401610108565b336000908152602081815260408083208584529091529020546001600160a01b039081169082168190036101df5760405162461bcd60e51b815260206004820152602160248201527f416c72656164792064656c65676174656420746f2074686973206164647265736044820152607360f81b6064820152608401610108565b33600090815260208181526040808320868452909152902080546001600160a01b0319166001600160a01b0384811691909117909155811615610255576040516001600160a01b03821690849033907f9c4f00c4291262731946e308dc2979a56bd22cce8f95906b975065e96cd5a06490600090a45b6040516001600160a01b03831690849033907fa9a7fd460f56bddb880a465a9c3e9730389c70bc53108148f16d55a87a6c468e90600090a4505050565b336000908152602081815260408083208484529091529020546001600160a01b0316806102f35760405162461bcd60e51b815260206004820152600f60248201526e139bc819195b1959d85d19481cd95d608a1b6044820152606401610108565b3360008181526020818152604080832086845290915280822080546001600160a01b0319169055516001600160a01b03841692859290917f9c4f00c4291262731946e308dc2979a56bd22cce8f95906b975065e96cd5a0649190a45050565b80356001600160a01b038116811461036957600080fd5b919050565b6000806040838503121561038157600080fd5b61038a83610352565b946020939093013593505050565b600080604083850312156103ab57600080fd5b823591506103bb60208401610352565b90509250929050565b6000602082840312156103d657600080fd5b503591905056fea264697066735822122086dbb1180ae5b864850febfaba78c384a38e2ce28afd86915e4859e1f7bb7c2d64736f6c63430008180033",
    "linkReferences": {}
  },
  "methodIdentifiers": {
    "clearDelegate(bytes32)": "f0bedbe2",
    "delegation(address,bytes32)": "74c6c454",
    "setDelegate(bytes32,address)": "bd86e508"
  },
  "id": 0
}